{
  "_format": "hh-sol-artifact-1",
  "contractName": "Project",
  "sourceName": "contracts/Project.sol",
  "abi": [
    {
      "inputs": [],
      "stateMutability": "nonpayable",
      "type": "constructor"
    },
    {
      "anonymous": false,
      "inputs": [
        {
          "indexed": true,
          "internalType": "address",
          "name": "_owner",
          "type": "address"
        },
        {
          "indexed": true,
          "internalType": "address",
          "name": "_leaser",
          "type": "address"
        },
        {
          "indexed": false,
          "internalType": "uint16",
          "name": "_HouseShopNumber",
          "type": "uint16"
        }
      ],
      "name": "endRet1",
      "type": "event"
    },
    {
      "anonymous": false,
      "inputs": [
        {
          "indexed": true,
          "internalType": "address",
          "name": "_leaser",
          "type": "address"
        },
        {
          "indexed": true,
          "internalType": "address",
          "name": "_owner",
          "type": "address"
        },
        {
          "indexed": false,
          "internalType": "uint16",
          "name": "_HouseShopNumber",
          "type": "uint16"
        },
        {
          "indexed": false,
          "internalType": "string",
          "name": "_ProportName",
          "type": "string"
        },
        {
          "indexed": false,
          "internalType": "uint256",
          "name": "_RentEnd",
          "type": "uint256"
        },
        {
          "indexed": false,
          "internalType": "uint256",
          "name": "_leaserAmount",
          "type": "uint256"
        }
      ],
      "name": "getRent1",
      "type": "event"
    },
    {
      "anonymous": false,
      "inputs": [
        {
          "indexed": true,
          "internalType": "address",
          "name": "_owner",
          "type": "address"
        },
        {
          "indexed": false,
          "internalType": "uint16",
          "name": "_houseShopNumber",
          "type": "uint16"
        }
      ],
      "name": "removeHouseShopEvent",
      "type": "event"
    },
    {
      "anonymous": false,
      "inputs": [
        {
          "indexed": true,
          "internalType": "address",
          "name": "_owner",
          "type": "address"
        },
        {
          "indexed": false,
          "internalType": "string",
          "name": "_AssetName",
          "type": "string"
        },
        {
          "indexed": false,
          "internalType": "string",
          "name": "types1",
          "type": "string"
        },
        {
          "indexed": false,
          "internalType": "uint256",
          "name": "_amount",
          "type": "uint256"
        }
      ],
      "name": "setHouseShop1",
      "type": "event"
    },
    {
      "inputs": [
        {
          "internalType": "address",
          "name": "",
          "type": "address"
        },
        {
          "internalType": "uint256",
          "name": "",
          "type": "uint256"
        }
      ],
      "name": "EndRentEarly",
      "outputs": [
        {
          "internalType": "address",
          "name": "owner",
          "type": "address"
        },
        {
          "internalType": "address",
          "name": "leaser",
          "type": "address"
        },
        {
          "internalType": "uint16",
          "name": "HouseShopNumber",
          "type": "uint16"
        },
        {
          "internalType": "bool",
          "name": "leaserActive",
          "type": "bool"
        },
        {
          "internalType": "bool",
          "name": "ownerActive",
          "type": "bool"
        },
        {
          "internalType": "bool",
          "name": "active",
          "type": "bool"
        }
      ],
      "stateMutability": "view",
      "type": "function"
    },
    {
      "inputs": [
        {
          "internalType": "address",
          "name": "",
          "type": "address"
        },
        {
          "internalType": "uint256",
          "name": "",
          "type": "uint256"
        }
      ],
      "name": "PropertyMap",
      "outputs": [
        {
          "internalType": "address",
          "name": "owner",
          "type": "address"
        },
        {
          "internalType": "string",
          "name": "AssetName",
          "type": "string"
        },
        {
          "internalType": "bool",
          "name": "active",
          "type": "bool"
        },
        {
          "internalType": "uint256",
          "name": "MonthPrice",
          "type": "uint256"
        },
        {
          "internalType": "enum Project.HouseShop",
          "name": "types",
          "type": "uint8"
        }
      ],
      "stateMutability": "view",
      "type": "function"
    },
    {
      "inputs": [
        {
          "internalType": "address",
          "name": "",
          "type": "address"
        }
      ],
      "name": "balances",
      "outputs": [
        {
          "internalType": "uint256",
          "name": "",
          "type": "uint256"
        }
      ],
      "stateMutability": "view",
      "type": "function"
    },
    {
      "inputs": [
        {
          "internalType": "address",
          "name": "",
          "type": "address"
        }
      ],
      "name": "blackList",
      "outputs": [
        {
          "internalType": "bool",
          "name": "",
          "type": "bool"
        }
      ],
      "stateMutability": "view",
      "type": "function"
    },
    {
      "inputs": [
        {
          "internalType": "address",
          "name": "",
          "type": "address"
        },
        {
          "internalType": "uint256",
          "name": "",
          "type": "uint256"
        }
      ],
      "name": "complains",
      "outputs": [
        {
          "internalType": "address",
          "name": "leaser",
          "type": "address"
        },
        {
          "internalType": "address",
          "name": "owner",
          "type": "address"
        },
        {
          "internalType": "uint16",
          "name": "HouseShopNumber",
          "type": "uint16"
        },
        {
          "internalType": "string",
          "name": "reason",
          "type": "string"
        },
        {
          "internalType": "string",
          "name": "decision",
          "type": "string"
        },
        {
          "internalType": "bool",
          "name": "rightful",
          "type": "bool"
        },
        {
          "internalType": "bool",
          "name": "active",
          "type": "bool"
        }
      ],
      "stateMutability": "view",
      "type": "function"
    },
    {
      "inputs": [
        {
          "internalType": "address",
          "name": "",
          "type": "address"
        },
        {
          "internalType": "uint256",
          "name": "",
          "type": "uint256"
        }
      ],
      "name": "contracts",
      "outputs": [
        {
          "internalType": "address",
          "name": "owner",
          "type": "address"
        },
        {
          "internalType": "address",
          "name": "leaser",
          "type": "address"
        },
        {
          "internalType": "string",
          "name": "ProportName",
          "type": "string"
        },
        {
          "internalType": "uint256",
          "name": "RentPrice",
          "type": "uint256"
        },
        {
          "internalType": "uint256",
          "name": "RentStart",
          "type": "uint256"
        },
        {
          "internalType": "uint256",
          "name": "RentEnd",
          "type": "uint256"
        }
      ],
      "stateMutability": "view",
      "type": "function"
    },
    {
      "inputs": [
        {
          "internalType": "address",
          "name": "_leaser",
          "type": "address"
        },
        {
          "internalType": "address",
          "name": "_owner",
          "type": "address"
        },
        {
          "internalType": "uint16",
          "name": "_HouseShopNumber",
          "type": "uint16"
        },
        {
          "internalType": "string",
          "name": "_reason",
          "type": "string"
        }
      ],
      "name": "createComplain",
      "outputs": [],
      "stateMutability": "nonpayable",
      "type": "function"
    },
    {
      "inputs": [
        {
          "internalType": "address",
          "name": "_complainant",
          "type": "address"
        },
        {
          "internalType": "uint16",
          "name": "_compNumber",
          "type": "uint16"
        },
        {
          "internalType": "string",
          "name": "_decision",
          "type": "string"
        },
        {
          "internalType": "bool",
          "name": "_rightful",
          "type": "bool"
        }
      ],
      "name": "decisionOwner",
      "outputs": [],
      "stateMutability": "nonpayable",
      "type": "function"
    },
    {
      "inputs": [
        {
          "internalType": "address",
          "name": "_owner",
          "type": "address"
        },
        {
          "internalType": "address",
          "name": "_leaser",
          "type": "address"
        },
        {
          "internalType": "uint16",
          "name": "_HouseShopNumber",
          "type": "uint16"
        }
      ],
      "name": "endRent",
      "outputs": [],
      "stateMutability": "nonpayable",
      "type": "function"
    },
    {
      "inputs": [
        {
          "internalType": "address",
          "name": "_leaser",
          "type": "address"
        },
        {
          "internalType": "address",
          "name": "_owner",
          "type": "address"
        },
        {
          "internalType": "uint16",
          "name": "_contractMappingOwnerNumber",
          "type": "uint16"
        },
        {
          "internalType": "uint16",
          "name": "_HouseShopNumber",
          "type": "uint16"
        }
      ],
      "name": "endRentEarly1",
      "outputs": [],
      "stateMutability": "nonpayable",
      "type": "function"
    },
    {
      "inputs": [
        {
          "internalType": "address payable",
          "name": "_leaser",
          "type": "address"
        },
        {
          "internalType": "address payable",
          "name": "_owner",
          "type": "address"
        },
        {
          "internalType": "uint16",
          "name": "_HouseShopNumber",
          "type": "uint16"
        },
        {
          "internalType": "string",
          "name": "_PropertyName",
          "type": "string"
        },
        {
          "internalType": "uint256",
          "name": "_RentEnd",
          "type": "uint256"
        },
        {
          "internalType": "uint256",
          "name": "_leaserAmount",
          "type": "uint256"
        }
      ],
      "name": "getRent",
      "outputs": [],
      "stateMutability": "payable",
      "type": "function"
    },
    {
      "inputs": [],
      "name": "owner",
      "outputs": [
        {
          "internalType": "address",
          "name": "",
          "type": "address"
        }
      ],
      "stateMutability": "view",
      "type": "function"
    },
    {
      "inputs": [
        {
          "internalType": "address",
          "name": "_owner",
          "type": "address"
        },
        {
          "internalType": "uint16",
          "name": "_EndRentEarlyMappingNumber",
          "type": "uint16"
        },
        {
          "internalType": "bool",
          "name": "_active",
          "type": "bool"
        }
      ],
      "name": "ownerLeaserResponseEarlyEnd",
      "outputs": [],
      "stateMutability": "nonpayable",
      "type": "function"
    },
    {
      "inputs": [
        {
          "internalType": "address",
          "name": "_owner",
          "type": "address"
        },
        {
          "internalType": "uint16",
          "name": "_houseShopNumber",
          "type": "uint16"
        }
      ],
      "name": "removeHouseShop",
      "outputs": [],
      "stateMutability": "nonpayable",
      "type": "function"
    },
    {
      "inputs": [
        {
          "internalType": "address",
          "name": "_owner",
          "type": "address"
        },
        {
          "internalType": "string",
          "name": "_AssetName",
          "type": "string"
        },
        {
          "internalType": "string",
          "name": "types1",
          "type": "string"
        },
        {
          "internalType": "uint256",
          "name": "_amount",
          "type": "uint256"
        }
      ],
      "name": "setHouseShop",
      "outputs": [],
      "stateMutability": "nonpayable",
      "type": "function"
    },
    {
      "inputs": [
        {
          "internalType": "uint256",
          "name": "_amount",
          "type": "uint256"
        }
      ],
      "name": "withdraw",
      "outputs": [],
      "stateMutability": "payable",
      "type": "function"
    },
    {
      "stateMutability": "payable",
      "type": "receive"
    }
  ],
  "bytecode": "0x60a060405260008060006101000a81548160ff02191690831515021790555034801561002a57600080fd5b503373ffffffffffffffffffffffffffffffffffffffff1660808173ffffffffffffffffffffffffffffffffffffffff1681525050608051615c57620000a56000396000818161045e0152818161186b01528181611caf015281816120230152818161204701528181612b6601526135260152615c576000f3fe6080604052600436106100f75760003560e01c80638c10fc671161008a5780639d29f3f9116100595780639d29f3f914610387578063e69af152146103c8578063ed23f8c3146103f1578063eff012d71461043357610153565b80638c10fc67146102e15780638da5cb5b1461030a578063919f83ea14610335578063924af9431461035e57610153565b80634838d165116100c65780634838d1651461020f5780635c3414ae1461024c5780635f89e52514610275578063751f81cf146102b857610153565b806325d024231461015857806327e235e3146101745780632e1a7d4d146101b157806331772839146101cd57610153565b366101535734600360003373ffffffffffffffffffffffffffffffffffffffff1673ffffffffffffffffffffffffffffffffffffffff168152602001908152602001600020600082825461014b9190613fa7565b925050819055005b600080fd5b610172600480360381019061016d91906141f9565b61045c565b005b34801561018057600080fd5b5061019b600480360381019061019691906142e0565b610c7a565b6040516101a8919061431c565b60405180910390f35b6101cb60048036038101906101c69190614337565b610c92565b005b3480156101d957600080fd5b506101f460048036038101906101ef9190614364565b610e00565b604051610206969594939291906143dd565b60405180910390f35b34801561021b57600080fd5b50610236600480360381019061023191906142e0565b610ece565b604051610243919061443e565b60405180910390f35b34801561025857600080fd5b50610273600480360381019061026e9190614459565b610eee565b005b34801561028157600080fd5b5061029c60048036038101906102979190614364565b611692565b6040516102af979695949392919061452b565b60405180910390f35b3480156102c457600080fd5b506102df60048036038101906102da91906145a8565b611869565b005b3480156102ed57600080fd5b506103086004803603810190610303919061463b565b611cad565b005b34801561031657600080fd5b5061031f612021565b60405161032c91906146be565b60405180910390f35b34801561034157600080fd5b5061035c600480360381019061035791906146d9565b612045565b005b34801561036a57600080fd5b5061038560048036038101906103809190614778565b6124f4565b005b34801561039357600080fd5b506103ae60048036038101906103a99190614364565b612a4f565b6040516103bf95949392919061482f565b60405180910390f35b3480156103d457600080fd5b506103ef60048036038101906103ea9190614889565b612b64565b005b3480156103fd57600080fd5b5061041860048036038101906104139190614364565b613403565b60405161042a969594939291906148dc565b60405180910390f35b34801561043f57600080fd5b5061045a60048036038101906104559190614944565b613524565b005b7f000000000000000000000000000000000000000000000000000000000000000073ffffffffffffffffffffffffffffffffffffffff163373ffffffffffffffffffffffffffffffffffffffff16036104ea576040517f08c379a00000000000000000000000000000000000000000000000000000000081526004016104e190614a13565b60405180910390fd5b60011515600560003373ffffffffffffffffffffffffffffffffffffffff1673ffffffffffffffffffffffffffffffffffffffff16815260200190815260200160002060009054906101000a900460ff1615150361057d576040517f08c379a000000000000000000000000000000000000000000000000000000000815260040161057490614a7f565b60405180910390fd5b858073ffffffffffffffffffffffffffffffffffffffff163373ffffffffffffffffffffffffffffffffffffffff16146105ec576040517f08c379a00000000000000000000000000000000000000000000000000000000081526004016105e390614aeb565b60405180910390fd5b60008054906101000a900460ff161561063a576040517f08c379a000000000000000000000000000000000000000000000000000000000815260040161063190614b57565b60405180910390fd5b8673ffffffffffffffffffffffffffffffffffffffff168673ffffffffffffffffffffffffffffffffffffffff16036106a8576040517f08c379a000000000000000000000000000000000000000000000000000000000815260040161069f90614bc3565b60405180910390fd5b600115156106b68787613ade565b1515036106f8576040517f08c379a00000000000000000000000000000000000000000000000000000000081526004016106ef90614c2f565b60405180910390fd5b6000600260008873ffffffffffffffffffffffffffffffffffffffff1673ffffffffffffffffffffffffffffffffffffffff1681526020019081526020016000208661ffff168154811061074f5761074e614c4f565b5b906000526020600020906005020190508261076a8888613b61565b146107aa576040517f08c379a00000000000000000000000000000000000000000000000000000000081526004016107a190614cca565b60405180910390fd5b601e846107b79190614d19565b836107c29190614d4a565b600360003373ffffffffffffffffffffffffffffffffffffffff1673ffffffffffffffffffffffffffffffffffffffff168152602001908152602001600020541015610843576040517f08c379a000000000000000000000000000000000000000000000000000000000815260040161083a90614dd8565b60405180910390fd5b601e841015801561086057506000601e8561085e9190614df8565b145b61089f576040517f08c379a000000000000000000000000000000000000000000000000000000000815260040161089690614e75565b60405180910390fd5b6000601e856108ae9190614d19565b9050600c8111156108f4576040517f08c379a00000000000000000000000000000000000000000000000000000000081526004016108eb90614ee1565b60405180910390fd5b6108fc613d79565b89816020019073ffffffffffffffffffffffffffffffffffffffff16908173ffffffffffffffffffffffffffffffffffffffff168152505088816000019073ffffffffffffffffffffffffffffffffffffffff16908173ffffffffffffffffffffffffffffffffffffffff16815250508681604001819052504281608001818152505042620151808761098f9190614d4a565b6109999190613fa7565b8160a0018181525050601e866109af9190614d19565b856109ba9190614d4a565b816060018181525050600160008a73ffffffffffffffffffffffffffffffffffffffff1673ffffffffffffffffffffffffffffffffffffffff16815260200190815260200160002081908060018154018082558091505060019003906000526020600020906006020160009091909190915060008201518160000160006101000a81548173ffffffffffffffffffffffffffffffffffffffff021916908373ffffffffffffffffffffffffffffffffffffffff16021790555060208201518160010160006101000a81548173ffffffffffffffffffffffffffffffffffffffff021916908373ffffffffffffffffffffffffffffffffffffffff1602179055506040820151816002019081610acf919061510d565b50606082015181600301556080820151816004015560a0820151816005015550508185610afc9190614d4a565b600360003373ffffffffffffffffffffffffffffffffffffffff1673ffffffffffffffffffffffffffffffffffffffff1681526020019081526020016000206000828254610b4a91906151df565b9250508190555060016000806101000a81548160ff0219169083151502179055508185610b779190614d4a565b600360008b73ffffffffffffffffffffffffffffffffffffffff1673ffffffffffffffffffffffffffffffffffffffff1681526020019081526020016000206000828254610bc59190613fa7565b9250508190555060008060006101000a81548160ff02191690831515021790555060018360020160006101000a81548160ff0219169083151502179055508873ffffffffffffffffffffffffffffffffffffffff168a73ffffffffffffffffffffffffffffffffffffffff167f52e39fa7a45d1cc2adc20a1ea99e80ea1fc5ac7e93e3674d011b0fcb7f0722998a8a8a8a604051610c669493929190615213565b60405180910390a350505050505050505050565b60036020528060005260406000206000915090505481565b60008054906101000a900460ff1615610ce0576040517f08c379a0000000000000000000000000000000000000000000000000000000008152600401610cd7906152ab565b60405180910390fd5b80600360003373ffffffffffffffffffffffffffffffffffffffff1673ffffffffffffffffffffffffffffffffffffffff168152602001908152602001600020541015610d2c57600080fd5b80600360003373ffffffffffffffffffffffffffffffffffffffff1673ffffffffffffffffffffffffffffffffffffffff1681526020019081526020016000206000828254610d7b91906151df565b9250508190555060016000806101000a81548160ff0219169083151502179055503373ffffffffffffffffffffffffffffffffffffffff166108fc829081150290604051600060405180830381858888f19350505050158015610de2573d6000803e3d6000fd5b5060008060006101000a81548160ff02191690831515021790555050565b60066020528160005260406000208181548110610e1c57600080fd5b9060005260206000209060020201600091509150508060000160009054906101000a900473ffffffffffffffffffffffffffffffffffffffff16908060010160009054906101000a900473ffffffffffffffffffffffffffffffffffffffff16908060010160149054906101000a900461ffff16908060010160169054906101000a900460ff16908060010160179054906101000a900460ff16908060010160189054906101000a900460ff16905086565b60056020528060005260406000206000915054906101000a900460ff1681565b6000600260008573ffffffffffffffffffffffffffffffffffffffff1673ffffffffffffffffffffffffffffffffffffffff1681526020019081526020016000208261ffff1681548110610f4557610f44614c4f565b5b90600052602060002090600502019050600160008573ffffffffffffffffffffffffffffffffffffffff1673ffffffffffffffffffffffffffffffffffffffff1681526020019081526020016000208261ffff1681548110610faa57610fa9614c4f565b5b906000526020600020906006020160000160009054906101000a900473ffffffffffffffffffffffffffffffffffffffff1673ffffffffffffffffffffffffffffffffffffffff163373ffffffffffffffffffffffffffffffffffffffff1614611049576040517f08c379a000000000000000000000000000000000000000000000000000000000815260040161104090615317565b60405180910390fd5b600115158160020160009054906101000a900460ff161515146110a1576040517f08c379a000000000000000000000000000000000000000000000000000000000815260040161109890615383565b60405180910390fd5b600160008573ffffffffffffffffffffffffffffffffffffffff1673ffffffffffffffffffffffffffffffffffffffff1681526020019081526020016000208261ffff16815481106110f6576110f5614c4f565b5b906000526020600020906006020160010160009054906101000a900473ffffffffffffffffffffffffffffffffffffffff1673ffffffffffffffffffffffffffffffffffffffff168373ffffffffffffffffffffffffffffffffffffffff1614611195576040517f08c379a000000000000000000000000000000000000000000000000000000000815260040161118c906153ef565b60405180910390fd5b426111a08584613bd7565b11156111e1576040517f08c379a00000000000000000000000000000000000000000000000000000000081526004016111d89061545b565b60405180910390fd5b60008160020160006101000a81548160ff0219169083151502179055506000600160008673ffffffffffffffffffffffffffffffffffffffff1673ffffffffffffffffffffffffffffffffffffffff16815260200190815260200160002080549050905060018161125291906151df565b8361ffff160361133f57600160008673ffffffffffffffffffffffffffffffffffffffff1673ffffffffffffffffffffffffffffffffffffffff1681526020019081526020016000208054806112ab576112aa61547b565b5b6001900381819060005260206000209060060201600080820160006101000a81549073ffffffffffffffffffffffffffffffffffffffff02191690556001820160006101000a81549073ffffffffffffffffffffffffffffffffffffffff021916905560028201600061131e9190613ddb565b60038201600090556004820160009055600582016000905550509055611626565b60008390505b60018261135291906151df565b8161ffff16101561154657600160008773ffffffffffffffffffffffffffffffffffffffff1673ffffffffffffffffffffffffffffffffffffffff1681526020019081526020016000206001826113a991906154aa565b61ffff16815481106113be576113bd614c4f565b5b9060005260206000209060060201600160008873ffffffffffffffffffffffffffffffffffffffff1673ffffffffffffffffffffffffffffffffffffffff1681526020019081526020016000208261ffff168154811061142157611420614c4f565b5b90600052602060002090600602016000820160009054906101000a900473ffffffffffffffffffffffffffffffffffffffff168160000160006101000a81548173ffffffffffffffffffffffffffffffffffffffff021916908373ffffffffffffffffffffffffffffffffffffffff1602179055506001820160009054906101000a900473ffffffffffffffffffffffffffffffffffffffff168160010160006101000a81548173ffffffffffffffffffffffffffffffffffffffff021916908373ffffffffffffffffffffffffffffffffffffffff1602179055506002820181600201908161151191906154f6565b50600382015481600301556004820154816004015560058201548160050155905050808061153e906155de565b915050611345565b50600160008673ffffffffffffffffffffffffffffffffffffffff1673ffffffffffffffffffffffffffffffffffffffff1681526020019081526020016000208054806115965761159561547b565b5b6001900381819060005260206000209060060201600080820160006101000a81549073ffffffffffffffffffffffffffffffffffffffff02191690556001820160006101000a81549073ffffffffffffffffffffffffffffffffffffffff02191690556002820160006116099190613ddb565b600382016000905560048201600090556005820160009055505090555b8373ffffffffffffffffffffffffffffffffffffffff168573ffffffffffffffffffffffffffffffffffffffff167fa4ca4e3a14ab22c1648cee5ad36d03aca5fbb6f087757e14b68496b23d384156856040516116839190615608565b60405180910390a35050505050565b600460205281600052604060002081815481106116ae57600080fd5b9060005260206000209060050201600091509150508060000160009054906101000a900473ffffffffffffffffffffffffffffffffffffffff16908060010160009054906101000a900473ffffffffffffffffffffffffffffffffffffffff16908060010160149054906101000a900461ffff169080600201805461173290614f30565b80601f016020809104026020016040519081016040528092919081815260200182805461175e90614f30565b80156117ab5780601f10611780576101008083540402835291602001916117ab565b820191906000526020600020905b81548152906001019060200180831161178e57829003601f168201915b5050505050908060030180546117c090614f30565b80601f01602080910402602001604051908101604052809291908181526020018280546117ec90614f30565b80156118395780601f1061180e57610100808354040283529160200191611839565b820191906000526020600020905b81548152906001019060200180831161181c57829003601f168201915b5050505050908060040160009054906101000a900460ff16908060040160019054906101000a900460ff16905087565b7f000000000000000000000000000000000000000000000000000000000000000073ffffffffffffffffffffffffffffffffffffffff163373ffffffffffffffffffffffffffffffffffffffff16036118f7576040517f08c379a00000000000000000000000000000000000000000000000000000000081526004016118ee90614a13565b60405180910390fd5b8373ffffffffffffffffffffffffffffffffffffffff166119188484613c4d565b73ffffffffffffffffffffffffffffffffffffffff161461196e576040517f08c379a00000000000000000000000000000000000000000000000000000000081526004016119659061566f565b60405180910390fd5b8273ffffffffffffffffffffffffffffffffffffffff1661198f8484613ce3565b73ffffffffffffffffffffffffffffffffffffffff16146119e5576040517f08c379a00000000000000000000000000000000000000000000000000000000081526004016119dc906156db565b60405180910390fd5b6213c680426119f48584613bd7565b6119fe91906151df565b1015611a3f576040517f08c379a0000000000000000000000000000000000000000000000000000000008152600401611a3690615747565b60405180910390fd5b611a47613e1b565b84816020019073ffffffffffffffffffffffffffffffffffffffff16908173ffffffffffffffffffffffffffffffffffffffff168152505083816000019073ffffffffffffffffffffffffffffffffffffffff16908173ffffffffffffffffffffffffffffffffffffffff168152505081816040019061ffff16908161ffff1681525050806020015173ffffffffffffffffffffffffffffffffffffffff163373ffffffffffffffffffffffffffffffffffffffff1603611b18576001816060019015159081151581525050611b2a565b60018160800190151590811515815250505b600660008573ffffffffffffffffffffffffffffffffffffffff1673ffffffffffffffffffffffffffffffffffffffff16815260200190815260200160002081908060018154018082558091505060019003906000526020600020906002020160009091909190915060008201518160000160006101000a81548173ffffffffffffffffffffffffffffffffffffffff021916908373ffffffffffffffffffffffffffffffffffffffff16021790555060208201518160010160006101000a81548173ffffffffffffffffffffffffffffffffffffffff021916908373ffffffffffffffffffffffffffffffffffffffff16021790555060408201518160010160146101000a81548161ffff021916908361ffff16021790555060608201518160010160166101000a81548160ff02191690831515021790555060808201518160010160176101000a81548160ff02191690831515021790555060a08201518160010160186101000a81548160ff02191690831515021790555050505050505050565b7f000000000000000000000000000000000000000000000000000000000000000073ffffffffffffffffffffffffffffffffffffffff163373ffffffffffffffffffffffffffffffffffffffff1614611d3b576040517f08c379a0000000000000000000000000000000000000000000000000000000008152600401611d32906156db565b60405180910390fd5b60011515600460008673ffffffffffffffffffffffffffffffffffffffff1673ffffffffffffffffffffffffffffffffffffffff1681526020019081526020016000208461ffff1681548110611d9457611d93614c4f565b5b906000526020600020906005020160040160019054906101000a900460ff16151503611df5576040517f08c379a0000000000000000000000000000000000000000000000000000000008152600401611dec906157b3565b60405180910390fd5b6000600460008673ffffffffffffffffffffffffffffffffffffffff1673ffffffffffffffffffffffffffffffffffffffff1681526020019081526020016000208461ffff1681548110611e4c57611e4b614c4f565b5b9060005260206000209060050201905082816003019081611e6d919061510d565b50818160040160006101000a81548160ff02191690831515021790555060018160040160016101000a81548160ff021916908315150217905550600115158160040160009054906101000a900460ff1615150361201a578473ffffffffffffffffffffffffffffffffffffffff168160010160009054906101000a900473ffffffffffffffffffffffffffffffffffffffff1673ffffffffffffffffffffffffffffffffffffffff1603611f9c576001600560008360000160009054906101000a900473ffffffffffffffffffffffffffffffffffffffff1673ffffffffffffffffffffffffffffffffffffffff1673ffffffffffffffffffffffffffffffffffffffff16815260200190815260200160002060006101000a81548160ff021916908315150217905550612019565b6001600560008360010160009054906101000a900473ffffffffffffffffffffffffffffffffffffffff1673ffffffffffffffffffffffffffffffffffffffff1673ffffffffffffffffffffffffffffffffffffffff16815260200190815260200160002060006101000a81548160ff0219169083151502179055505b5b5050505050565b7f000000000000000000000000000000000000000000000000000000000000000081565b7f000000000000000000000000000000000000000000000000000000000000000073ffffffffffffffffffffffffffffffffffffffff163373ffffffffffffffffffffffffffffffffffffffff16036120d3576040517f08c379a00000000000000000000000000000000000000000000000000000000081526004016120ca90614a13565b60405180910390fd5b60011515600560003373ffffffffffffffffffffffffffffffffffffffff1673ffffffffffffffffffffffffffffffffffffffff16815260200190815260200160002060009054906101000a900460ff16151503612166576040517f08c379a000000000000000000000000000000000000000000000000000000000815260040161215d90614a7f565b60405180910390fd5b838073ffffffffffffffffffffffffffffffffffffffff163373ffffffffffffffffffffffffffffffffffffffff16146121d5576040517f08c379a00000000000000000000000000000000000000000000000000000000081526004016121cc90614aeb565b60405180910390fd5b6121dd613e87565b85816000019073ffffffffffffffffffffffffffffffffffffffff16908173ffffffffffffffffffffffffffffffffffffffff16815250508481602001819052508281606001818152505080604001515060405160200161223d9061582a565b60405160208183030381529060405280519060200120846040516020016122649190615870565b60405160208183030381529060405280519060200120036122b557600081608001906001811115612298576122976147b8565b5b908160018111156122ac576122ab6147b8565b5b81525050612378565b6040516020016122c4906158d3565b60405160208183030381529060405280519060200120846040516020016122eb9190615870565b604051602081830303815290604052805190602001200361233c5760018160800190600181111561231f5761231e6147b8565b5b90816001811115612333576123326147b8565b5b81525050612377565b6040517f08c379a000000000000000000000000000000000000000000000000000000000815260040161236e90615934565b60405180910390fd5b5b600260003373ffffffffffffffffffffffffffffffffffffffff1673ffffffffffffffffffffffffffffffffffffffff16815260200190815260200160002081908060018154018082558091505060019003906000526020600020906005020160009091909190915060008201518160000160006101000a81548173ffffffffffffffffffffffffffffffffffffffff021916908373ffffffffffffffffffffffffffffffffffffffff160217905550602082015181600101908161243d919061510d565b5060408201518160020160006101000a81548160ff0219169083151502179055506060820151816003015560808201518160040160006101000a81548160ff02191690836001811115612493576124926147b8565b5b021790555050508573ffffffffffffffffffffffffffffffffffffffff167f6713c952d77cb5a7aee09d2b7470a146c1463e0568a28fed0c734f7fd8e461678686866040516124e493929190615954565b60405180910390a2505050505050565b818073ffffffffffffffffffffffffffffffffffffffff163373ffffffffffffffffffffffffffffffffffffffff1614612563576040517f08c379a000000000000000000000000000000000000000000000000000000000815260040161255a90614aeb565b60405180910390fd5b6000600260008573ffffffffffffffffffffffffffffffffffffffff1673ffffffffffffffffffffffffffffffffffffffff16815260200190815260200160002080549050116125e8576040517f08c379a00000000000000000000000000000000000000000000000000000000081526004016125df906159e5565b60405180910390fd5b600015156125f68484613ade565b15151461260257600080fd5b6000600260008573ffffffffffffffffffffffffffffffffffffffff1673ffffffffffffffffffffffffffffffffffffffff16815260200190815260200160002080549050905060018161265691906151df565b8361ffff160361273457600260008573ffffffffffffffffffffffffffffffffffffffff1673ffffffffffffffffffffffffffffffffffffffff1681526020019081526020016000208054806126af576126ae61547b565b5b6001900381819060005260206000209060050201600080820160006101000a81549073ffffffffffffffffffffffffffffffffffffffff02191690556001820160006126fb9190613ddb565b6002820160006101000a81549060ff021916905560038201600090556004820160006101000a81549060ff0219169055505090556129fb565b60008390505b60018261274791906151df565b8161ffff16101561292a57600260008673ffffffffffffffffffffffffffffffffffffffff1673ffffffffffffffffffffffffffffffffffffffff16815260200190815260200160002060018261279e91906154aa565b61ffff16815481106127b3576127b2614c4f565b5b9060005260206000209060050201600260008773ffffffffffffffffffffffffffffffffffffffff1673ffffffffffffffffffffffffffffffffffffffff1681526020019081526020016000208261ffff168154811061281657612815614c4f565b5b90600052602060002090600502016000820160009054906101000a900473ffffffffffffffffffffffffffffffffffffffff168160000160006101000a81548173ffffffffffffffffffffffffffffffffffffffff021916908373ffffffffffffffffffffffffffffffffffffffff1602179055506001820181600101908161289f91906154f6565b506002820160009054906101000a900460ff168160020160006101000a81548160ff021916908315150217905550600382015481600301556004820160009054906101000a900460ff168160040160006101000a81548160ff0219169083600181111561290f5761290e6147b8565b5b02179055509050508080612922906155de565b91505061273a565b50600260008573ffffffffffffffffffffffffffffffffffffffff1673ffffffffffffffffffffffffffffffffffffffff16815260200190815260200160002080548061297a5761297961547b565b5b6001900381819060005260206000209060050201600080820160006101000a81549073ffffffffffffffffffffffffffffffffffffffff02191690556001820160006129c69190613ddb565b6002820160006101000a81549060ff021916905560038201600090556004820160006101000a81549060ff0219169055505090555b8373ffffffffffffffffffffffffffffffffffffffff167f0dfbf6a0d2fe7c6b2439f87cfe819825a3d2f98a09f07b9d6f64d17f0e45d86684604051612a419190615608565b60405180910390a250505050565b60026020528160005260406000208181548110612a6b57600080fd5b9060005260206000209060050201600091509150508060000160009054906101000a900473ffffffffffffffffffffffffffffffffffffffff1690806001018054612ab590614f30565b80601f0160208091040260200160405190810160405280929190818152602001828054612ae190614f30565b8015612b2e5780601f10612b0357610100808354040283529160200191612b2e565b820191906000526020600020905b815481529060010190602001808311612b1157829003601f168201915b5050505050908060020160009054906101000a900460ff16908060030154908060040160009054906101000a900460ff16905085565b7f000000000000000000000000000000000000000000000000000000000000000073ffffffffffffffffffffffffffffffffffffffff163373ffffffffffffffffffffffffffffffffffffffff1603612bf2576040517f08c379a0000000000000000000000000000000000000000000000000000000008152600401612be990614a13565b60405180910390fd5b6000600660008573ffffffffffffffffffffffffffffffffffffffff1673ffffffffffffffffffffffffffffffffffffffff1681526020019081526020016000208361ffff1681548110612c4957612c48614c4f565b5b90600052602060002090600202019050600015158160010160189054906101000a900460ff16151514612cb1576040517f08c379a0000000000000000000000000000000000000000000000000000000008152600401612ca890615a51565b60405180910390fd5b8060010160009054906101000a900473ffffffffffffffffffffffffffffffffffffffff1673ffffffffffffffffffffffffffffffffffffffff163373ffffffffffffffffffffffffffffffffffffffff1603612dbb573373ffffffffffffffffffffffffffffffffffffffff168160010160009054906101000a900473ffffffffffffffffffffffffffffffffffffffff1673ffffffffffffffffffffffffffffffffffffffff1614612d9a576040517f08c379a0000000000000000000000000000000000000000000000000000000008152600401612d919061566f565b60405180910390fd5b818160010160166101000a81548160ff021916908315150217905550612f01565b8060000160009054906101000a900473ffffffffffffffffffffffffffffffffffffffff1673ffffffffffffffffffffffffffffffffffffffff163373ffffffffffffffffffffffffffffffffffffffff1603612ec5573373ffffffffffffffffffffffffffffffffffffffff168160000160009054906101000a900473ffffffffffffffffffffffffffffffffffffffff1673ffffffffffffffffffffffffffffffffffffffff1614612ea4576040517f08c379a0000000000000000000000000000000000000000000000000000000008152600401612e9b9061566f565b60405180910390fd5b818160010160176101000a81548160ff021916908315150217905550612f00565b6040517f08c379a0000000000000000000000000000000000000000000000000000000008152600401612ef790615abd565b60405180910390fd5b5b60018160010160186101000a81548160ff0219169083151502179055506000600160008673ffffffffffffffffffffffffffffffffffffffff1673ffffffffffffffffffffffffffffffffffffffff16815260200190815260200160002080549050905060011515831515036133fc57600181612f7e91906151df565b8260010160149054906101000a900461ffff1661ffff160361307d57600160008673ffffffffffffffffffffffffffffffffffffffff1673ffffffffffffffffffffffffffffffffffffffff168152602001908152602001600020805480612fe957612fe861547b565b5b6001900381819060005260206000209060060201600080820160006101000a81549073ffffffffffffffffffffffffffffffffffffffff02191690556001820160006101000a81549073ffffffffffffffffffffffffffffffffffffffff021916905560028201600061305c9190613ddb565b60038201600090556004820160009055600582016000905550509055613376565b60008260010160149054906101000a900461ffff1690505b6001826130a291906151df565b8161ffff16101561329657600160008773ffffffffffffffffffffffffffffffffffffffff1673ffffffffffffffffffffffffffffffffffffffff1681526020019081526020016000206001826130f991906154aa565b61ffff168154811061310e5761310d614c4f565b5b9060005260206000209060060201600160008873ffffffffffffffffffffffffffffffffffffffff1673ffffffffffffffffffffffffffffffffffffffff1681526020019081526020016000208261ffff168154811061317157613170614c4f565b5b90600052602060002090600602016000820160009054906101000a900473ffffffffffffffffffffffffffffffffffffffff168160000160006101000a81548173ffffffffffffffffffffffffffffffffffffffff021916908373ffffffffffffffffffffffffffffffffffffffff1602179055506001820160009054906101000a900473ffffffffffffffffffffffffffffffffffffffff168160010160006101000a81548173ffffffffffffffffffffffffffffffffffffffff021916908373ffffffffffffffffffffffffffffffffffffffff1602179055506002820181600201908161326191906154f6565b50600382015481600301556004820154816004015560058201548160050155905050808061328e906155de565b915050613095565b50600160008673ffffffffffffffffffffffffffffffffffffffff1673ffffffffffffffffffffffffffffffffffffffff1681526020019081526020016000208054806132e6576132e561547b565b5b6001900381819060005260206000209060060201600080820160006101000a81549073ffffffffffffffffffffffffffffffffffffffff02191690556001820160006101000a81549073ffffffffffffffffffffffffffffffffffffffff02191690556002820160006133599190613ddb565b600382016000905560048201600090556005820160009055505090555b6000600260008773ffffffffffffffffffffffffffffffffffffffff1673ffffffffffffffffffffffffffffffffffffffff1681526020019081526020016000208561ffff16815481106133cd576133cc614c4f565b5b9060005260206000209060050201905060008160020160006101000a81548160ff021916908315150217905550505b5050505050565b6001602052816000526040600020818154811061341f57600080fd5b9060005260206000209060060201600091509150508060000160009054906101000a900473ffffffffffffffffffffffffffffffffffffffff16908060010160009054906101000a900473ffffffffffffffffffffffffffffffffffffffff169080600201805461348f90614f30565b80601f01602080910402602001604051908101604052809291908181526020018280546134bb90614f30565b80156135085780601f106134dd57610100808354040283529160200191613508565b820191906000526020600020905b8154815290600101906020018083116134eb57829003601f168201915b5050505050908060030154908060040154908060050154905086565b7f000000000000000000000000000000000000000000000000000000000000000073ffffffffffffffffffffffffffffffffffffffff163373ffffffffffffffffffffffffffffffffffffffff16036135b2576040517f08c379a00000000000000000000000000000000000000000000000000000000081526004016135a990614a13565b60405180910390fd5b6135bc8383613c4d565b73ffffffffffffffffffffffffffffffffffffffff168473ffffffffffffffffffffffffffffffffffffffff1614613629576040517f08c379a000000000000000000000000000000000000000000000000000000000815260040161362090615b29565b60405180910390fd5b6136338383613ce3565b73ffffffffffffffffffffffffffffffffffffffff168373ffffffffffffffffffffffffffffffffffffffff16146136a0576040517f08c379a000000000000000000000000000000000000000000000000000000000815260040161369790615b95565b60405180910390fd5b6213c680426136af9190613fa7565b6136b98484613bd7565b116136f9576040517f08c379a00000000000000000000000000000000000000000000000000000000081526004016136f090615c01565b60405180910390fd5b613701613ee0565b83816020019073ffffffffffffffffffffffffffffffffffffffff16908173ffffffffffffffffffffffffffffffffffffffff168152505084816000019073ffffffffffffffffffffffffffffffffffffffff16908173ffffffffffffffffffffffffffffffffffffffff168152505082816040019061ffff16908161ffff16815250508181606001819052508473ffffffffffffffffffffffffffffffffffffffff163373ffffffffffffffffffffffffffffffffffffffff160361394e57600460008673ffffffffffffffffffffffffffffffffffffffff1673ffffffffffffffffffffffffffffffffffffffff16815260200190815260200160002081908060018154018082558091505060019003906000526020600020906005020160009091909190915060008201518160000160006101000a81548173ffffffffffffffffffffffffffffffffffffffff021916908373ffffffffffffffffffffffffffffffffffffffff16021790555060208201518160010160006101000a81548173ffffffffffffffffffffffffffffffffffffffff021916908373ffffffffffffffffffffffffffffffffffffffff16021790555060408201518160010160146101000a81548161ffff021916908361ffff16021790555060608201518160020190816138f0919061510d565b506080820151816003019081613906919061510d565b5060a08201518160040160006101000a81548160ff02191690831515021790555060c08201518160040160016101000a81548160ff0219169083151502179055505050613ad7565b600460008573ffffffffffffffffffffffffffffffffffffffff1673ffffffffffffffffffffffffffffffffffffffff16815260200190815260200160002081908060018154018082558091505060019003906000526020600020906005020160009091909190915060008201518160000160006101000a81548173ffffffffffffffffffffffffffffffffffffffff021916908373ffffffffffffffffffffffffffffffffffffffff16021790555060208201518160010160006101000a81548173ffffffffffffffffffffffffffffffffffffffff021916908373ffffffffffffffffffffffffffffffffffffffff16021790555060408201518160010160146101000a81548161ffff021916908361ffff1602179055506060820151816002019081613a7d919061510d565b506080820151816003019081613a93919061510d565b5060a08201518160040160006101000a81548160ff02191690831515021790555060c08201518160040160016101000a81548160ff02191690831515021790555050505b5050505050565b600080600260008573ffffffffffffffffffffffffffffffffffffffff1673ffffffffffffffffffffffffffffffffffffffff1681526020019081526020016000208361ffff1681548110613b3657613b35614c4f565b5b906000526020600020906005020190508060020160009054906101000a900460ff1691505092915050565b600080600260008573ffffffffffffffffffffffffffffffffffffffff1673ffffffffffffffffffffffffffffffffffffffff1681526020019081526020016000208361ffff1681548110613bb957613bb8614c4f565b5b90600052602060002090600502019050806003015491505092915050565b600080600160008573ffffffffffffffffffffffffffffffffffffffff1673ffffffffffffffffffffffffffffffffffffffff1681526020019081526020016000208361ffff1681548110613c2f57613c2e614c4f565b5b90600052602060002090600602019050806005015491505092915050565b600080600160008573ffffffffffffffffffffffffffffffffffffffff1673ffffffffffffffffffffffffffffffffffffffff1681526020019081526020016000208361ffff1681548110613ca557613ca4614c4f565b5b906000526020600020906006020190508060010160009054906101000a900473ffffffffffffffffffffffffffffffffffffffff1691505092915050565b600080600160008573ffffffffffffffffffffffffffffffffffffffff1673ffffffffffffffffffffffffffffffffffffffff1681526020019081526020016000208361ffff1681548110613d3b57613d3a614c4f565b5b906000526020600020906006020190508060000160009054906101000a900473ffffffffffffffffffffffffffffffffffffffff1691505092915050565b6040518060c00160405280600073ffffffffffffffffffffffffffffffffffffffff168152602001600073ffffffffffffffffffffffffffffffffffffffff168152602001606081526020016000815260200160008152602001600081525090565b508054613de790614f30565b6000825580601f10613df95750613e18565b601f016020900490600052602060002090810190613e179190613f51565b5b50565b6040518060c00160405280600073ffffffffffffffffffffffffffffffffffffffff168152602001600073ffffffffffffffffffffffffffffffffffffffff168152602001600061ffff1681526020016000151581526020016000151581526020016000151581525090565b6040518060a00160405280600073ffffffffffffffffffffffffffffffffffffffff168152602001606081526020016000151581526020016000815260200160006001811115613eda57613ed96147b8565b5b81525090565b6040518060e00160405280600073ffffffffffffffffffffffffffffffffffffffff168152602001600073ffffffffffffffffffffffffffffffffffffffff168152602001600061ffff16815260200160608152602001606081526020016000151581526020016000151581525090565b5b80821115613f6a576000816000905550600101613f52565b5090565b6000819050919050565b7f4e487b7100000000000000000000000000000000000000000000000000000000600052601160045260246000fd5b6000613fb282613f6e565b9150613fbd83613f6e565b9250828201905080821115613fd557613fd4613f78565b5b92915050565b6000604051905090565b600080fd5b600080fd5b600073ffffffffffffffffffffffffffffffffffffffff82169050919050565b600061401a82613fef565b9050919050565b61402a8161400f565b811461403557600080fd5b50565b60008135905061404781614021565b92915050565b600061ffff82169050919050565b6140648161404d565b811461406f57600080fd5b50565b6000813590506140818161405b565b92915050565b600080fd5b600080fd5b6000601f19601f8301169050919050565b7f4e487b7100000000000000000000000000000000000000000000000000000000600052604160045260246000fd5b6140da82614091565b810181811067ffffffffffffffff821117156140f9576140f86140a2565b5b80604052505050565b600061410c613fdb565b905061411882826140d1565b919050565b600067ffffffffffffffff821115614138576141376140a2565b5b61414182614091565b9050602081019050919050565b82818337600083830152505050565b600061417061416b8461411d565b614102565b90508281526020810184848401111561418c5761418b61408c565b5b61419784828561414e565b509392505050565b600082601f8301126141b4576141b3614087565b5b81356141c484826020860161415d565b91505092915050565b6141d681613f6e565b81146141e157600080fd5b50565b6000813590506141f3816141cd565b92915050565b60008060008060008060c0878903121561421657614215613fe5565b5b600061422489828a01614038565b965050602061423589828a01614038565b955050604061424689828a01614072565b945050606087013567ffffffffffffffff81111561426757614266613fea565b5b61427389828a0161419f565b935050608061428489828a016141e4565b92505060a061429589828a016141e4565b9150509295509295509295565b60006142ad82613fef565b9050919050565b6142bd816142a2565b81146142c857600080fd5b50565b6000813590506142da816142b4565b92915050565b6000602082840312156142f6576142f5613fe5565b5b6000614304848285016142cb565b91505092915050565b61431681613f6e565b82525050565b6000602082019050614331600083018461430d565b92915050565b60006020828403121561434d5761434c613fe5565b5b600061435b848285016141e4565b91505092915050565b6000806040838503121561437b5761437a613fe5565b5b6000614389858286016142cb565b925050602061439a858286016141e4565b9150509250929050565b6143ad816142a2565b82525050565b6143bc8161404d565b82525050565b60008115159050919050565b6143d7816143c2565b82525050565b600060c0820190506143f260008301896143a4565b6143ff60208301886143a4565b61440c60408301876143b3565b61441960608301866143ce565b61442660808301856143ce565b61443360a08301846143ce565b979650505050505050565b600060208201905061445360008301846143ce565b92915050565b60008060006060848603121561447257614471613fe5565b5b6000614480868287016142cb565b9350506020614491868287016142cb565b92505060406144a286828701614072565b9150509250925092565b600081519050919050565b600082825260208201905092915050565b60005b838110156144e65780820151818401526020810190506144cb565b60008484015250505050565b60006144fd826144ac565b61450781856144b7565b93506145178185602086016144c8565b61452081614091565b840191505092915050565b600060e082019050614540600083018a6143a4565b61454d60208301896143a4565b61455a60408301886143b3565b818103606083015261456c81876144f2565b9050818103608083015261458081866144f2565b905061458f60a08301856143ce565b61459c60c08301846143ce565b98975050505050505050565b600080600080608085870312156145c2576145c1613fe5565b5b60006145d0878288016142cb565b94505060206145e1878288016142cb565b93505060406145f287828801614072565b925050606061460387828801614072565b91505092959194509250565b614618816143c2565b811461462357600080fd5b50565b6000813590506146358161460f565b92915050565b6000806000806080858703121561465557614654613fe5565b5b6000614663878288016142cb565b945050602061467487828801614072565b935050604085013567ffffffffffffffff81111561469557614694613fea565b5b6146a18782880161419f565b92505060606146b287828801614626565b91505092959194509250565b60006020820190506146d360008301846143a4565b92915050565b600080600080608085870312156146f3576146f2613fe5565b5b6000614701878288016142cb565b945050602085013567ffffffffffffffff81111561472257614721613fea565b5b61472e8782880161419f565b935050604085013567ffffffffffffffff81111561474f5761474e613fea565b5b61475b8782880161419f565b925050606061476c878288016141e4565b91505092959194509250565b6000806040838503121561478f5761478e613fe5565b5b600061479d858286016142cb565b92505060206147ae85828601614072565b9150509250929050565b7f4e487b7100000000000000000000000000000000000000000000000000000000600052602160045260246000fd5b600281106147f8576147f76147b8565b5b50565b6000819050614809826147e7565b919050565b6000614819826147fb565b9050919050565b6148298161480e565b82525050565b600060a08201905061484460008301886143a4565b818103602083015261485681876144f2565b905061486560408301866143ce565b614872606083018561430d565b61487f6080830184614820565b9695505050505050565b6000806000606084860312156148a2576148a1613fe5565b5b60006148b0868287016142cb565b93505060206148c186828701614072565b92505060406148d286828701614626565b9150509250925092565b600060c0820190506148f160008301896143a4565b6148fe60208301886143a4565b818103604083015261491081876144f2565b905061491f606083018661430d565b61492c608083018561430d565b61493960a083018461430d565b979650505050505050565b6000806000806080858703121561495e5761495d613fe5565b5b600061496c878288016142cb565b945050602061497d878288016142cb565b935050604061498e87828801614072565b925050606085013567ffffffffffffffff8111156149af576149ae613fea565b5b6149bb8782880161419f565b91505092959194509250565b7f4f776e65722063616e742072656e740000000000000000000000000000000000600082015250565b60006149fd600f836144b7565b9150614a08826149c7565b602082019050919050565b60006020820190508181036000830152614a2c816149f0565b9050919050565b7f596f752061726520696e20626c61636b6c697374000000000000000000000000600082015250565b6000614a696014836144b7565b9150614a7482614a33565b602082019050919050565b60006020820190508181036000830152614a9881614a5c565b9050919050565b7f796f7520617265206e6f74206c6561736572206f72206f776e65720000000000600082015250565b6000614ad5601b836144b7565b9150614ae082614a9f565b602082019050919050565b60006020820190508181036000830152614b0481614ac8565b9050919050565b7f52652d656e7472616e6379210000000000000000000000000000000000000000600082015250565b6000614b41600c836144b7565b9150614b4c82614b0b565b602082019050919050565b60006020820190508181036000830152614b7081614b34565b9050919050565b7f796f752063616e742072656e7420796f757273656c6600000000000000000000600082015250565b6000614bad6016836144b7565b9150614bb882614b77565b602082019050919050565b60006020820190508181036000830152614bdc81614ba0565b9050919050565b7f616c72656164792072656e746564000000000000000000000000000000000000600082015250565b6000614c19600e836144b7565b9150614c2482614be3565b602082019050919050565b60006020820190508181036000830152614c4881614c0c565b9050919050565b7f4e487b7100000000000000000000000000000000000000000000000000000000600052603260045260246000fd5b7f496e76616c696420507269636500000000000000000000000000000000000000600082015250565b6000614cb4600d836144b7565b9150614cbf82614c7e565b602082019050919050565b60006020820190508181036000830152614ce381614ca7565b9050919050565b7f4e487b7100000000000000000000000000000000000000000000000000000000600052601260045260246000fd5b6000614d2482613f6e565b9150614d2f83613f6e565b925082614d3f57614d3e614cea565b5b828204905092915050565b6000614d5582613f6e565b9150614d6083613f6e565b9250828202614d6e81613f6e565b91508282048414831517614d8557614d84613f78565b5b5092915050565b7f696e73756666696369656e742066756e64730000000000000000000000000000600082015250565b6000614dc26012836144b7565b9150614dcd82614d8c565b602082019050919050565b60006020820190508181036000830152614df181614db5565b9050919050565b6000614e0382613f6e565b9150614e0e83613f6e565b925082614e1e57614e1d614cea565b5b828206905092915050565b7f206d756c7469706c652033300000000000000000000000000000000000000000600082015250565b6000614e5f600c836144b7565b9150614e6a82614e29565b602082019050919050565b60006020820190508181036000830152614e8e81614e52565b9050919050565b7f206d6178203132206d6f6e7468732e0000000000000000000000000000000000600082015250565b6000614ecb600f836144b7565b9150614ed682614e95565b602082019050919050565b60006020820190508181036000830152614efa81614ebe565b9050919050565b7f4e487b7100000000000000000000000000000000000000000000000000000000600052602260045260246000fd5b60006002820490506001821680614f4857607f821691505b602082108103614f5b57614f5a614f01565b5b50919050565b60008190508160005260206000209050919050565b60006020601f8301049050919050565b600082821b905092915050565b600060088302614fc37fffffffffffffffffffffffffffffffffffffffffffffffffffffffffffffffff82614f86565b614fcd8683614f86565b95508019841693508086168417925050509392505050565b6000819050919050565b600061500a61500561500084613f6e565b614fe5565b613f6e565b9050919050565b6000819050919050565b61502483614fef565b61503861503082615011565b848454614f93565b825550505050565b600090565b61504d615040565b61505881848461501b565b505050565b5b8181101561507c57615071600082615045565b60018101905061505e565b5050565b601f8211156150c15761509281614f61565b61509b84614f76565b810160208510156150aa578190505b6150be6150b685614f76565b83018261505d565b50505b505050565b600082821c905092915050565b60006150e4600019846008026150c6565b1980831691505092915050565b60006150fd83836150d3565b9150826002028217905092915050565b615116826144ac565b67ffffffffffffffff81111561512f5761512e6140a2565b5b6151398254614f30565b615144828285615080565b600060209050601f8311600181146151775760008415615165578287015190505b61516f85826150f1565b8655506151d7565b601f19841661518586614f61565b60005b828110156151ad57848901518255600182019150602085019450602081019050615188565b868310156151ca57848901516151c6601f8916826150d3565b8355505b6001600288020188555050505b505050505050565b60006151ea82613f6e565b91506151f583613f6e565b925082820390508181111561520d5761520c613f78565b5b92915050565b600060808201905061522860008301876143b3565b818103602083015261523a81866144f2565b9050615249604083018561430d565b615256606083018461430d565b95945050505050565b7f5265656e7472616e63792063616c6c2064657465637465642100000000000000600082015250565b60006152956019836144b7565b91506152a08261525f565b602082019050919050565b600060208201905081810360008301526152c481615288565b9050919050565b7f6f776e657220213d000000000000000000000000000000000000000000000000600082015250565b60006153016008836144b7565b915061530c826152cb565b602082019050919050565b60006020820190508181036000830152615330816152f4565b9050919050565b7f417373657420697320616c736f20656d7074792e000000000000000000000000600082015250565b600061536d6014836144b7565b915061537882615337565b602082019050919050565b6000602082019050818103600083015261539c81615360565b9050919050565b7f6c656173657220213d0000000000000000000000000000000000000000000000600082015250565b60006153d96009836144b7565b91506153e4826153a3565b602082019050919050565b60006020820190508181036000830152615408816153cc565b9050919050565b7f54696d65206973206e6f7420636f6d706c657465642e00000000000000000000600082015250565b60006154456016836144b7565b91506154508261540f565b602082019050919050565b6000602082019050818103600083015261547481615438565b9050919050565b7f4e487b7100000000000000000000000000000000000000000000000000000000600052603160045260246000fd5b60006154b58261404d565b91506154c08361404d565b9250828201905061ffff8111156154da576154d9613f78565b5b92915050565b6000815490506154ef81614f30565b9050919050565b8181036155045750506155dc565b61550d826154e0565b67ffffffffffffffff811115615526576155256140a2565b5b6155308254614f30565b61553b828285615080565b6000601f83116001811461556a5760008415615558578287015490505b61556285826150f1565b8655506155d5565b601f19841661557887614f61565b965061558386614f61565b60005b828110156155ab57848901548255600182019150600185019450602081019050615586565b868310156155c857848901546155c4601f8916826150d3565b8355505b6001600288020188555050505b5050505050505b565b60006155e98261404d565b915061ffff82036155fd576155fc613f78565b5b600182019050919050565b600060208201905061561d60008301846143b3565b92915050565b7f596f7520617265206e6f74206c65617365720000000000000000000000000000600082015250565b60006156596012836144b7565b915061566482615623565b602082019050919050565b600060208201905081810360008301526156888161564c565b9050919050565b7f596f7520617265206e6f74206f776e6572000000000000000000000000000000600082015250565b60006156c56011836144b7565b91506156d08261568f565b602082019050919050565b600060208201905081810360008301526156f4816156b8565b9050919050565b7f313520646179732e000000000000000000000000000000000000000000000000600082015250565b60006157316008836144b7565b915061573c826156fb565b602082019050919050565b6000602082019050818103600083015261576081615724565b9050919050565b7f497420697320616c726561647920646563696465642e00000000000000000000600082015250565b600061579d6016836144b7565b91506157a882615767565b602082019050919050565b600060208201905081810360008301526157cc81615790565b9050919050565b600081905092915050565b7f486f757365000000000000000000000000000000000000000000000000000000600082015250565b60006158146005836157d3565b915061581f826157de565b600582019050919050565b600061583582615807565b9150819050919050565b600061584a826144ac565b61585481856157d3565b93506158648185602086016144c8565b80840191505092915050565b600061587c828461583f565b915081905092915050565b7f53686f7000000000000000000000000000000000000000000000000000000000600082015250565b60006158bd6004836157d3565b91506158c882615887565b600482019050919050565b60006158de826158b0565b9150819050919050565b7f696e76616c696420537472696e67000000000000000000000000000000000000600082015250565b600061591e600e836144b7565b9150615929826158e8565b602082019050919050565b6000602082019050818103600083015261594d81615911565b9050919050565b6000606082019050818103600083015261596e81866144f2565b9050818103602083015261598281856144f2565b9050615991604083018461430d565b949350505050565b7f5468657265206973206e6f206173736574000000000000000000000000000000600082015250565b60006159cf6011836144b7565b91506159da82615999565b602082019050919050565b600060208201905081810360008301526159fe816159c2565b9050919050565b7f416c726561647920726573706f6e656421000000000000000000000000000000600082015250565b6000615a3b6011836144b7565b9150615a4682615a05565b602082019050919050565b60006020820190508181036000830152615a6a81615a2e565b9050919050565b7f596f7520617265206e6f74206c6561736572206f72206f776e65720000000000600082015250565b6000615aa7601b836144b7565b9150615ab282615a71565b602082019050919050565b60006020820190508181036000830152615ad681615a9a565b9050919050565b7f796f7520617265206e6f74206c65617365720000000000000000000000000000600082015250565b6000615b136012836144b7565b9150615b1e82615add565b602082019050919050565b60006020820190508181036000830152615b4281615b06565b9050919050565b7f496e76616c6964206f776e657220616464726573730000000000000000000000600082015250565b6000615b7f6015836144b7565b9150615b8a82615b49565b602082019050919050565b60006020820190508181036000830152615bae81615b72565b9050919050565b7f3135206461797300000000000000000000000000000000000000000000000000600082015250565b6000615beb6007836144b7565b9150615bf682615bb5565b602082019050919050565b60006020820190508181036000830152615c1a81615bde565b905091905056fea2646970667358221220983bfaaf47768d7eb35e836392ea867e4a928a5a7ae963c1a5ab11fc3fd2824b64736f6c63430008140033",
  "linkReferences": {},
  "deployedLinkReferences": {}
}